{
  "_format": "hh-sol-artifact-1",
  "contractName": "Raffle",
  "sourceName": "contracts/Raffle.sol",
  "abi": [
    {
      "inputs": [],
      "stateMutability": "payable",
      "type": "constructor"
    },
    {
      "anonymous": false,
      "inputs": [
        {
          "indexed": true,
          "internalType": "address",
          "name": "owner",
          "type": "address"
        },
        {
          "indexed": true,
          "internalType": "address",
          "name": "approved",
          "type": "address"
        },
        {
          "indexed": true,
          "internalType": "uint256",
          "name": "tokenId",
          "type": "uint256"
        }
      ],
      "name": "Approval",
      "type": "event"
    },
    {
      "anonymous": false,
      "inputs": [
        {
          "indexed": true,
          "internalType": "address",
          "name": "owner",
          "type": "address"
        },
        {
          "indexed": true,
          "internalType": "address",
          "name": "operator",
          "type": "address"
        },
        {
          "indexed": false,
          "internalType": "bool",
          "name": "approved",
          "type": "bool"
        }
      ],
      "name": "ApprovalForAll",
      "type": "event"
    },
    {
      "anonymous": false,
      "inputs": [
        {
          "indexed": true,
          "internalType": "address",
          "name": "from",
          "type": "address"
        },
        {
          "indexed": true,
          "internalType": "address",
          "name": "to",
          "type": "address"
        },
        {
          "indexed": true,
          "internalType": "uint256",
          "name": "tokenId",
          "type": "uint256"
        }
      ],
      "name": "Transfer",
      "type": "event"
    },
    {
      "stateMutability": "payable",
      "type": "fallback"
    },
    {
      "inputs": [
        {
          "internalType": "address",
          "name": "to",
          "type": "address"
        },
        {
          "internalType": "uint256",
          "name": "tokenId",
          "type": "uint256"
        }
      ],
      "name": "approve",
      "outputs": [],
      "stateMutability": "nonpayable",
      "type": "function"
    },
    {
      "inputs": [
        {
          "internalType": "address",
          "name": "owner",
          "type": "address"
        }
      ],
      "name": "balanceOf",
      "outputs": [
        {
          "internalType": "uint256",
          "name": "",
          "type": "uint256"
        }
      ],
      "stateMutability": "view",
      "type": "function"
    },
    {
      "inputs": [
        {
          "internalType": "address",
          "name": "NFTaddress",
          "type": "address"
        }
      ],
      "name": "buyBackNFT",
      "outputs": [],
      "stateMutability": "nonpayable",
      "type": "function"
    },
    {
      "inputs": [
        {
          "internalType": "uint256",
          "name": "tokenId",
          "type": "uint256"
        }
      ],
      "name": "getApproved",
      "outputs": [
        {
          "internalType": "address",
          "name": "",
          "type": "address"
        }
      ],
      "stateMutability": "view",
      "type": "function"
    },
    {
      "inputs": [],
      "name": "inspectOwners",
      "outputs": [],
      "stateMutability": "view",
      "type": "function"
    },
    {
      "inputs": [
        {
          "internalType": "address",
          "name": "owner",
          "type": "address"
        },
        {
          "internalType": "address",
          "name": "operator",
          "type": "address"
        }
      ],
      "name": "isApprovedForAll",
      "outputs": [
        {
          "internalType": "bool",
          "name": "",
          "type": "bool"
        }
      ],
      "stateMutability": "view",
      "type": "function"
    },
    {
      "inputs": [],
      "name": "makeNFT",
      "outputs": [],
      "stateMutability": "nonpayable",
      "type": "function"
    },
    {
      "inputs": [],
      "name": "name",
      "outputs": [
        {
          "internalType": "string",
          "name": "",
          "type": "string"
        }
      ],
      "stateMutability": "view",
      "type": "function"
    },
    {
      "inputs": [
        {
          "internalType": "uint256",
          "name": "",
          "type": "uint256"
        }
      ],
      "name": "nftAddress",
      "outputs": [
        {
          "internalType": "address",
          "name": "",
          "type": "address"
        }
      ],
      "stateMutability": "view",
      "type": "function"
    },
    {
      "inputs": [
        {
          "internalType": "uint256",
          "name": "tokenId",
          "type": "uint256"
        }
      ],
      "name": "ownerOf",
      "outputs": [
        {
          "internalType": "address",
          "name": "",
          "type": "address"
        }
      ],
      "stateMutability": "view",
      "type": "function"
    },
    {
      "inputs": [
        {
          "internalType": "address",
          "name": "from",
          "type": "address"
        },
        {
          "internalType": "address",
          "name": "to",
          "type": "address"
        },
        {
          "internalType": "uint256",
          "name": "tokenId",
          "type": "uint256"
        }
      ],
      "name": "safeTransferFrom",
      "outputs": [],
      "stateMutability": "nonpayable",
      "type": "function"
    },
    {
      "inputs": [
        {
          "internalType": "address",
          "name": "from",
          "type": "address"
        },
        {
          "internalType": "address",
          "name": "to",
          "type": "address"
        },
        {
          "internalType": "uint256",
          "name": "tokenId",
          "type": "uint256"
        },
        {
          "internalType": "bytes",
          "name": "_data",
          "type": "bytes"
        }
      ],
      "name": "safeTransferFrom",
      "outputs": [],
      "stateMutability": "nonpayable",
      "type": "function"
    },
    {
      "inputs": [
        {
          "internalType": "uint256",
          "name": "amount",
          "type": "uint256"
        },
        {
          "internalType": "uint256",
          "name": "nftId",
          "type": "uint256"
        },
        {
          "internalType": "address",
          "name": "buyerAddress",
          "type": "address"
        }
      ],
      "name": "sellNFT",
      "outputs": [],
      "stateMutability": "nonpayable",
      "type": "function"
    },
    {
      "inputs": [
        {
          "internalType": "address payable",
          "name": "_to",
          "type": "address"
        }
      ],
      "name": "sendViaCall",
      "outputs": [],
      "stateMutability": "payable",
      "type": "function"
    },
    {
      "inputs": [
        {
          "internalType": "address",
          "name": "operator",
          "type": "address"
        },
        {
          "internalType": "bool",
          "name": "approved",
          "type": "bool"
        }
      ],
      "name": "setApprovalForAll",
      "outputs": [],
      "stateMutability": "nonpayable",
      "type": "function"
    },
    {
      "inputs": [
        {
          "internalType": "bytes4",
          "name": "interfaceId",
          "type": "bytes4"
        }
      ],
      "name": "supportsInterface",
      "outputs": [
        {
          "internalType": "bool",
          "name": "",
          "type": "bool"
        }
      ],
      "stateMutability": "view",
      "type": "function"
    },
    {
      "inputs": [],
      "name": "symbol",
      "outputs": [
        {
          "internalType": "string",
          "name": "",
          "type": "string"
        }
      ],
      "stateMutability": "view",
      "type": "function"
    },
    {
      "inputs": [
        {
          "internalType": "uint256",
          "name": "tokenId",
          "type": "uint256"
        }
      ],
      "name": "tokenURI",
      "outputs": [
        {
          "internalType": "string",
          "name": "",
          "type": "string"
        }
      ],
      "stateMutability": "view",
      "type": "function"
    },
    {
      "inputs": [
        {
          "internalType": "address",
          "name": "from",
          "type": "address"
        },
        {
          "internalType": "address",
          "name": "to",
          "type": "address"
        },
        {
          "internalType": "uint256",
          "name": "tokenId",
          "type": "uint256"
        }
      ],
      "name": "transferFrom",
      "outputs": [],
      "stateMutability": "nonpayable",
      "type": "function"
    },
    {
      "stateMutability": "payable",
      "type": "receive"
    }
  ],
  "bytecode": "0x60806040526040518060400160405280600981526020017f526166666c654e465400000000000000000000000000000000000000000000008152506040518060400160405280600681526020017f524146464c450000000000000000000000000000000000000000000000000000815250816000908051906020019062000088929190620000aa565b508060019080519060200190620000a1929190620000aa565b505050620001bf565b828054620000b8906200015a565b90600052602060002090601f016020900481019282620000dc576000855562000128565b82601f10620000f757805160ff191683800117855562000128565b8280016001018555821562000128579182015b82811115620001275782518255916020019190600101906200010a565b5b5090506200013791906200013b565b5090565b5b80821115620001565760008160009055506001016200013c565b5090565b600060028204905060018216806200017357607f821691505b602082108114156200018a576200018962000190565b5b50919050565b7f4e487b7100000000000000000000000000000000000000000000000000000000600052602260045260246000fd5b61382380620001cf6000396000f3fe6080604052600436106101185760003560e01c80637c237eea116100a0578063b88d4fde11610064578063b88d4fde14610382578063c87b56dd146103ab578063d0130ca1146103e8578063e985e9c514610411578063f88fba8c1461044e5761011f565b80637c237eea146102d2578063830c29ae146102fb57806395d89b4114610317578063a22cb46514610342578063b036b4bd1461036b5761011f565b806323b872dd116100e757806323b872dd146101ef57806342842e0e146102185780636352211e146102415780637067949c1461027e57806370a08231146102955761011f565b806301ffc9a71461012157806306fdde031461015e578063081812fc14610189578063095ea7b3146101c65761011f565b3661011f57005b005b34801561012d57600080fd5b50610148600480360381019061014391906122c3565b61048b565b60405161015591906127b9565b60405180910390f35b34801561016a57600080fd5b5061017361056d565b60405161018091906127d4565b60405180910390f35b34801561019557600080fd5b506101b060048036038101906101ab9190612315565b6105ff565b6040516101bd9190612752565b60405180910390f35b3480156101d257600080fd5b506101ed60048036038101906101e89190612287565b610684565b005b3480156101fb57600080fd5b5061021660048036038101906102119190612181565b61079c565b005b34801561022457600080fd5b5061023f600480360381019061023a9190612181565b6107fc565b005b34801561024d57600080fd5b5061026860048036038101906102639190612315565b61081c565b6040516102759190612752565b60405180910390f35b34801561028a57600080fd5b506102936108ce565b005b3480156102a157600080fd5b506102bc60048036038101906102b791906120f3565b61096a565b6040516102c99190612ac4565b60405180910390f35b3480156102de57600080fd5b506102f960048036038101906102f4919061233e565b610a22565b005b6103156004803603810190610310919061211c565b610b69565b005b34801561032357600080fd5b5061032c610c1c565b60405161033991906127d4565b60405180910390f35b34801561034e57600080fd5b506103696004803603810190610364919061224b565b610cae565b005b34801561037757600080fd5b50610380610cc4565b005b34801561038e57600080fd5b506103a960048036038101906103a491906121d0565b610df5565b005b3480156103b757600080fd5b506103d260048036038101906103cd9190612315565b610e57565b6040516103df91906127d4565b60405180910390f35b3480156103f457600080fd5b5061040f600480360381019061040a91906120f3565b610fa9565b005b34801561041d57600080fd5b5061043860048036038101906104339190612145565b610fac565b60405161044591906127b9565b60405180910390f35b34801561045a57600080fd5b5061047560048036038101906104709190612315565b611040565b6040516104829190612752565b60405180910390f35b60007f80ac58cd000000000000000000000000000000000000000000000000000000007bffffffffffffffffffffffffffffffffffffffffffffffffffffffff1916827bffffffffffffffffffffffffffffffffffffffffffffffffffffffff1916148061055657507f5b5e139f000000000000000000000000000000000000000000000000000000007bffffffffffffffffffffffffffffffffffffffffffffffffffffffff1916827bffffffffffffffffffffffffffffffffffffffffffffffffffffffff1916145b80610566575061056582611073565b5b9050919050565b60606000805461057c90612d06565b80601f01602080910402602001604051908101604052809291908181526020018280546105a890612d06565b80156105f55780601f106105ca576101008083540402835291602001916105f5565b820191906000526020600020905b8154815290600101906020018083116105d857829003601f168201915b5050505050905090565b600061060a826110dd565b610649576040517f08c379a000000000000000000000000000000000000000000000000000000000815260040161064090612a04565b60405180910390fd5b6004600083815260200190815260200160002060009054906101000a900473ffffffffffffffffffffffffffffffffffffffff169050919050565b600061068f8261081c565b90508073ffffffffffffffffffffffffffffffffffffffff168373ffffffffffffffffffffffffffffffffffffffff161415610700576040517f08c379a00000000000000000000000000000000000000000000000000000000081526004016106f790612a64565b60405180910390fd5b8073ffffffffffffffffffffffffffffffffffffffff1661071f611149565b73ffffffffffffffffffffffffffffffffffffffff16148061074e575061074d81610748611149565b610fac565b5b61078d576040517f08c379a000000000000000000000000000000000000000000000000000000000815260040161078490612944565b60405180910390fd5b6107978383611151565b505050565b6107ad6107a7611149565b8261120a565b6107ec576040517f08c379a00000000000000000000000000000000000000000000000000000000081526004016107e390612aa4565b60405180910390fd5b6107f78383836112e8565b505050565b61081783838360405180602001604052806000815250610df5565b505050565b6000806002600084815260200190815260200160002060009054906101000a900473ffffffffffffffffffffffffffffffffffffffff169050600073ffffffffffffffffffffffffffffffffffffffff168173ffffffffffffffffffffffffffffffffffffffff1614156108c5576040517f08c379a00000000000000000000000000000000000000000000000000000000081526004016108bc90612984565b60405180910390fd5b80915050919050565b60005b6108db6007611544565b811015610967576109546040518060400160405280601581526020017f496e7370656374696e67206f776e6572732c20257300000000000000000000008152506009600084815260200190815260200160002060009054906101000a900473ffffffffffffffffffffffffffffffffffffffff16611552565b808061095f90612d69565b9150506108d1565b50565b60008073ffffffffffffffffffffffffffffffffffffffff168273ffffffffffffffffffffffffffffffffffffffff1614156109db576040517f08c379a00000000000000000000000000000000000000000000000000000000081526004016109d290612964565b60405180910390fd5b600360008373ffffffffffffffffffffffffffffffffffffffff1673ffffffffffffffffffffffffffffffffffffffff168152602001908152602001600020549050919050565b47831115610a65576040517f08c379a0000000000000000000000000000000000000000000000000000000008152600401610a5c90612a84565b60405180910390fd5b60003373ffffffffffffffffffffffffffffffffffffffff1684604051610a8b9061273d565b60006040518083038185875af1925050503d8060008114610ac8576040519150601f19603f3d011682016040523d82523d6000602084013e610acd565b606091505b5050905080610b11576040517f08c379a0000000000000000000000000000000000000000000000000000000008152600401610b0890612904565b60405180910390fd5b816009600085815260200190815260200160002060006101000a81548173ffffffffffffffffffffffffffffffffffffffff021916908373ffffffffffffffffffffffffffffffffffffffff16021790555050505050565b6000808273ffffffffffffffffffffffffffffffffffffffff1634604051610b909061273d565b60006040518083038185875af1925050503d8060008114610bcd576040519150601f19603f3d011682016040523d82523d6000602084013e610bd2565b606091505b509150915081610c17576040517f08c379a0000000000000000000000000000000000000000000000000000000008152600401610c0e906128a4565b60405180910390fd5b505050565b606060018054610c2b90612d06565b80601f0160208091040260200160405190810160405280929190818152602001828054610c5790612d06565b8015610ca45780601f10610c7957610100808354040283529160200191610ca4565b820191906000526020600020905b815481529060010190602001808311610c8757829003601f168201915b5050505050905090565b610cc0610cb9611149565b83836115ee565b5050565b6000610cd06007611544565b9050610cdc338261175b565b610d018160405180610380016040528061035d815260200161349161035d9139611779565b610d2460405180606001604052806025815260200161346c6025913982336117ed565b336009600083815260200190815260200160002060006101000a81548173ffffffffffffffffffffffffffffffffffffffff021916908373ffffffffffffffffffffffffffffffffffffffff160217905550610de86040518060400160405280601081526020017f6e66744164647265737365732c202573000000000000000000000000000000008152506009600084815260200190815260200160002060009054906101000a900473ffffffffffffffffffffffffffffffffffffffff16611552565b610df2600761188c565b50565b610e06610e00611149565b8361120a565b610e45576040517f08c379a0000000000000000000000000000000000000000000000000000000008152600401610e3c90612aa4565b60405180910390fd5b610e51848484846118a2565b50505050565b6060610e62826110dd565b610ea1576040517f08c379a0000000000000000000000000000000000000000000000000000000008152600401610e98906129e4565b60405180910390fd5b6000600660008481526020019081526020016000208054610ec190612d06565b80601f0160208091040260200160405190810160405280929190818152602001828054610eed90612d06565b8015610f3a5780601f10610f0f57610100808354040283529160200191610f3a565b820191906000526020600020905b815481529060010190602001808311610f1d57829003601f168201915b505050505090506000610f4b6118fe565b9050600081511415610f61578192505050610fa4565b600082511115610f96578082604051602001610f7e929190612719565b60405160208183030381529060405292505050610fa4565b610f9f84611915565b925050505b919050565b50565b6000600560008473ffffffffffffffffffffffffffffffffffffffff1673ffffffffffffffffffffffffffffffffffffffff16815260200190815260200160002060008373ffffffffffffffffffffffffffffffffffffffff1673ffffffffffffffffffffffffffffffffffffffff16815260200190815260200160002060009054906101000a900460ff16905092915050565b60096020528060005260406000206000915054906101000a900473ffffffffffffffffffffffffffffffffffffffff1681565b60007f01ffc9a7000000000000000000000000000000000000000000000000000000007bffffffffffffffffffffffffffffffffffffffffffffffffffffffff1916827bffffffffffffffffffffffffffffffffffffffffffffffffffffffff1916149050919050565b60008073ffffffffffffffffffffffffffffffffffffffff166002600084815260200190815260200160002060009054906101000a900473ffffffffffffffffffffffffffffffffffffffff1673ffffffffffffffffffffffffffffffffffffffff1614159050919050565b600033905090565b816004600083815260200190815260200160002060006101000a81548173ffffffffffffffffffffffffffffffffffffffff021916908373ffffffffffffffffffffffffffffffffffffffff160217905550808273ffffffffffffffffffffffffffffffffffffffff166111c48361081c565b73ffffffffffffffffffffffffffffffffffffffff167f8c5be1e5ebec7d5bd14f71427d1e84f3dd0314c0f7b2291e5b200ac8c7c3b92560405160405180910390a45050565b6000611215826110dd565b611254576040517f08c379a000000000000000000000000000000000000000000000000000000000815260040161124b90612924565b60405180910390fd5b600061125f8361081c565b90508073ffffffffffffffffffffffffffffffffffffffff168473ffffffffffffffffffffffffffffffffffffffff1614806112ce57508373ffffffffffffffffffffffffffffffffffffffff166112b6846105ff565b73ffffffffffffffffffffffffffffffffffffffff16145b806112df57506112de8185610fac565b5b91505092915050565b8273ffffffffffffffffffffffffffffffffffffffff166113088261081c565b73ffffffffffffffffffffffffffffffffffffffff161461135e576040517f08c379a000000000000000000000000000000000000000000000000000000000815260040161135590612a24565b60405180910390fd5b600073ffffffffffffffffffffffffffffffffffffffff168273ffffffffffffffffffffffffffffffffffffffff1614156113ce576040517f08c379a00000000000000000000000000000000000000000000000000000000081526004016113c5906128c4565b60405180910390fd5b6113d98383836119bc565b6113e4600082611151565b6001600360008573ffffffffffffffffffffffffffffffffffffffff1673ffffffffffffffffffffffffffffffffffffffff16815260200190815260200160002060008282546114349190612c0a565b925050819055506001600360008473ffffffffffffffffffffffffffffffffffffffff1673ffffffffffffffffffffffffffffffffffffffff168152602001908152602001600020600082825461148b9190612b83565b92505081905550816002600083815260200190815260200160002060006101000a81548173ffffffffffffffffffffffffffffffffffffffff021916908373ffffffffffffffffffffffffffffffffffffffff160217905550808273ffffffffffffffffffffffffffffffffffffffff168473ffffffffffffffffffffffffffffffffffffffff167fddf252ad1be2c89b69c2b068fc378daa952ba7f163c4a11628f55a4df523b3ef60405160405180910390a4505050565b600081600001549050919050565b6115ea82826040516024016115689291906127f6565b6040516020818303038152906040527f319af333000000000000000000000000000000000000000000000000000000007bffffffffffffffffffffffffffffffffffffffffffffffffffffffff19166020820180517bffffffffffffffffffffffffffffffffffffffffffffffffffffffff83818316178352505050506119c1565b5050565b8173ffffffffffffffffffffffffffffffffffffffff168373ffffffffffffffffffffffffffffffffffffffff16141561165d576040517f08c379a0000000000000000000000000000000000000000000000000000000008152600401611654906128e4565b60405180910390fd5b80600560008573ffffffffffffffffffffffffffffffffffffffff1673ffffffffffffffffffffffffffffffffffffffff16815260200190815260200160002060008473ffffffffffffffffffffffffffffffffffffffff1673ffffffffffffffffffffffffffffffffffffffff16815260200190815260200160002060006101000a81548160ff0219169083151502179055508173ffffffffffffffffffffffffffffffffffffffff168373ffffffffffffffffffffffffffffffffffffffff167f17307eab39ab6107e8899845ad3d59bd9653f200f220920489ca2b5937696c318360405161174e91906127b9565b60405180910390a3505050565b6117758282604051806020016040528060008152506119ea565b5050565b611782826110dd565b6117c1576040517f08c379a00000000000000000000000000000000000000000000000000000000081526004016117b8906129a4565b60405180910390fd5b806006600084815260200190815260200160002090805190602001906117e8929190611f6a565b505050565b61188783838360405160240161180593929190612826565b6040516020818303038152906040527fe3849f79000000000000000000000000000000000000000000000000000000007bffffffffffffffffffffffffffffffffffffffffffffffffffffffff19166020820180517bffffffffffffffffffffffffffffffffffffffffffffffffffffffff83818316178352505050506119c1565b505050565b6001816000016000828254019250508190555050565b6118ad8484846112e8565b6118b984848484611a45565b6118f8576040517f08c379a00000000000000000000000000000000000000000000000000000000081526004016118ef90612864565b60405180910390fd5b50505050565b606060405180602001604052806000815250905090565b6060611920826110dd565b61195f576040517f08c379a000000000000000000000000000000000000000000000000000000000815260040161195690612a44565b60405180910390fd5b60006119696118fe565b9050600081511161198957604051806020016040528060008152506119b4565b8061199384611bdc565b6040516020016119a4929190612719565b6040516020818303038152906040525b915050919050565b505050565b60008151905060006a636f6e736f6c652e6c6f679050602083016000808483855afa5050505050565b6119f48383611d89565b611a016000848484611a45565b611a40576040517f08c379a0000000000000000000000000000000000000000000000000000000008152600401611a3790612864565b60405180910390fd5b505050565b6000611a668473ffffffffffffffffffffffffffffffffffffffff16611f57565b15611bcf578373ffffffffffffffffffffffffffffffffffffffff1663150b7a02611a8f611149565b8786866040518563ffffffff1660e01b8152600401611ab1949392919061276d565b602060405180830381600087803b158015611acb57600080fd5b505af1925050508015611afc57506040513d601f19601f82011682018060405250810190611af991906122ec565b60015b611b7f573d8060008114611b2c576040519150601f19603f3d011682016040523d82523d6000602084013e611b31565b606091505b50600081511415611b77576040517f08c379a0000000000000000000000000000000000000000000000000000000008152600401611b6e90612864565b60405180910390fd5b805181602001fd5b63150b7a0260e01b7bffffffffffffffffffffffffffffffffffffffffffffffffffffffff1916817bffffffffffffffffffffffffffffffffffffffffffffffffffffffff191614915050611bd4565b600190505b949350505050565b60606000821415611c24576040518060400160405280600181526020017f30000000000000000000000000000000000000000000000000000000000000008152509050611d84565b600082905060005b60008214611c56578080611c3f90612d69565b915050600a82611c4f9190612bd9565b9150611c2c565b60008167ffffffffffffffff811115611c98577f4e487b7100000000000000000000000000000000000000000000000000000000600052604160045260246000fd5b6040519080825280601f01601f191660200182016040528015611cca5781602001600182028036833780820191505090505b5090505b60008514611d7d57600182611ce39190612c0a565b9150600a85611cf29190612db2565b6030611cfe9190612b83565b60f81b818381518110611d3a577f4e487b7100000000000000000000000000000000000000000000000000000000600052603260045260246000fd5b60200101907effffffffffffffffffffffffffffffffffffffffffffffffffffffffffffff1916908160001a905350600a85611d769190612bd9565b9450611cce565b8093505050505b919050565b600073ffffffffffffffffffffffffffffffffffffffff168273ffffffffffffffffffffffffffffffffffffffff161415611df9576040517f08c379a0000000000000000000000000000000000000000000000000000000008152600401611df0906129c4565b60405180910390fd5b611e02816110dd565b15611e42576040517f08c379a0000000000000000000000000000000000000000000000000000000008152600401611e3990612884565b60405180910390fd5b611e4e600083836119bc565b6001600360008473ffffffffffffffffffffffffffffffffffffffff1673ffffffffffffffffffffffffffffffffffffffff1681526020019081526020016000206000828254611e9e9190612b83565b92505081905550816002600083815260200190815260200160002060006101000a81548173ffffffffffffffffffffffffffffffffffffffff021916908373ffffffffffffffffffffffffffffffffffffffff160217905550808273ffffffffffffffffffffffffffffffffffffffff16600073ffffffffffffffffffffffffffffffffffffffff167fddf252ad1be2c89b69c2b068fc378daa952ba7f163c4a11628f55a4df523b3ef60405160405180910390a45050565b600080823b905060008111915050919050565b828054611f7690612d06565b90600052602060002090601f016020900481019282611f985760008555611fdf565b82601f10611fb157805160ff1916838001178555611fdf565b82800160010185558215611fdf579182015b82811115611fde578251825591602001919060010190611fc3565b5b509050611fec9190611ff0565b5090565b5b80821115612009576000816000905550600101611ff1565b5090565b600061202061201b84612b04565b612adf565b90508281526020810184848401111561203857600080fd5b612043848285612cc4565b509392505050565b60008135905061205a816133f8565b92915050565b60008135905061206f8161340f565b92915050565b60008135905061208481613426565b92915050565b6000813590506120998161343d565b92915050565b6000815190506120ae8161343d565b92915050565b600082601f8301126120c557600080fd5b81356120d584826020860161200d565b91505092915050565b6000813590506120ed81613454565b92915050565b60006020828403121561210557600080fd5b60006121138482850161204b565b91505092915050565b60006020828403121561212e57600080fd5b600061213c84828501612060565b91505092915050565b6000806040838503121561215857600080fd5b60006121668582860161204b565b92505060206121778582860161204b565b9150509250929050565b60008060006060848603121561219657600080fd5b60006121a48682870161204b565b93505060206121b58682870161204b565b92505060406121c6868287016120de565b9150509250925092565b600080600080608085870312156121e657600080fd5b60006121f48782880161204b565b94505060206122058782880161204b565b9350506040612216878288016120de565b925050606085013567ffffffffffffffff81111561223357600080fd5b61223f878288016120b4565b91505092959194509250565b6000806040838503121561225e57600080fd5b600061226c8582860161204b565b925050602061227d85828601612075565b9150509250929050565b6000806040838503121561229a57600080fd5b60006122a88582860161204b565b92505060206122b9858286016120de565b9150509250929050565b6000602082840312156122d557600080fd5b60006122e38482850161208a565b91505092915050565b6000602082840312156122fe57600080fd5b600061230c8482850161209f565b91505092915050565b60006020828403121561232757600080fd5b6000612335848285016120de565b91505092915050565b60008060006060848603121561235357600080fd5b6000612361868287016120de565b9350506020612372868287016120de565b92505060406123838682870161204b565b9150509250925092565b61239681612c3e565b82525050565b6123a581612c62565b82525050565b60006123b682612b35565b6123c08185612b4b565b93506123d0818560208601612cd3565b6123d981612e9f565b840191505092915050565b60006123ef82612b40565b6123f98185612b67565b9350612409818560208601612cd3565b61241281612e9f565b840191505092915050565b600061242882612b40565b6124328185612b78565b9350612442818560208601612cd3565b80840191505092915050565b600061245b603283612b67565b915061246682612eb0565b604082019050919050565b600061247e601c83612b67565b915061248982612eff565b602082019050919050565b60006124a1601483612b67565b91506124ac82612f28565b602082019050919050565b60006124c4602483612b67565b91506124cf82612f51565b604082019050919050565b60006124e7601983612b67565b91506124f282612fa0565b602082019050919050565b600061250a602783612b67565b915061251582612fc9565b604082019050919050565b600061252d602c83612b67565b915061253882613018565b604082019050919050565b6000612550603883612b67565b915061255b82613067565b604082019050919050565b6000612573602a83612b67565b915061257e826130b6565b604082019050919050565b6000612596602983612b67565b91506125a182613105565b604082019050919050565b60006125b9602e83612b67565b91506125c482613154565b604082019050919050565b60006125dc602083612b67565b91506125e7826131a3565b602082019050919050565b60006125ff603183612b67565b915061260a826131cc565b604082019050919050565b6000612622602c83612b67565b915061262d8261321b565b604082019050919050565b6000612645602983612b67565b91506126508261326a565b604082019050919050565b6000612668602f83612b67565b9150612673826132b9565b604082019050919050565b600061268b602183612b67565b915061269682613308565b604082019050919050565b60006126ae603583612b67565b91506126b982613357565b604082019050919050565b60006126d1600083612b5c565b91506126dc826133a6565b600082019050919050565b60006126f4603183612b67565b91506126ff826133a9565b604082019050919050565b61271381612cba565b82525050565b6000612725828561241d565b9150612731828461241d565b91508190509392505050565b6000612748826126c4565b9150819050919050565b6000602082019050612767600083018461238d565b92915050565b6000608082019050612782600083018761238d565b61278f602083018661238d565b61279c604083018561270a565b81810360608301526127ae81846123ab565b905095945050505050565b60006020820190506127ce600083018461239c565b92915050565b600060208201905081810360008301526127ee81846123e4565b905092915050565b6000604082019050818103600083015261281081856123e4565b905061281f602083018461238d565b9392505050565b6000606082019050818103600083015261284081866123e4565b905061284f602083018561270a565b61285c604083018461238d565b949350505050565b6000602082019050818103600083015261287d8161244e565b9050919050565b6000602082019050818103600083015261289d81612471565b9050919050565b600060208201905081810360008301526128bd81612494565b9050919050565b600060208201905081810360008301526128dd816124b7565b9050919050565b600060208201905081810360008301526128fd816124da565b9050919050565b6000602082019050818103600083015261291d816124fd565b9050919050565b6000602082019050818103600083015261293d81612520565b9050919050565b6000602082019050818103600083015261295d81612543565b9050919050565b6000602082019050818103600083015261297d81612566565b9050919050565b6000602082019050818103600083015261299d81612589565b9050919050565b600060208201905081810360008301526129bd816125ac565b9050919050565b600060208201905081810360008301526129dd816125cf565b9050919050565b600060208201905081810360008301526129fd816125f2565b9050919050565b60006020820190508181036000830152612a1d81612615565b9050919050565b60006020820190508181036000830152612a3d81612638565b9050919050565b60006020820190508181036000830152612a5d8161265b565b9050919050565b60006020820190508181036000830152612a7d8161267e565b9050919050565b60006020820190508181036000830152612a9d816126a1565b9050919050565b60006020820190508181036000830152612abd816126e7565b9050919050565b6000602082019050612ad9600083018461270a565b92915050565b6000612ae9612afa565b9050612af58282612d38565b919050565b6000604051905090565b600067ffffffffffffffff821115612b1f57612b1e612e70565b5b612b2882612e9f565b9050602081019050919050565b600081519050919050565b600081519050919050565b600082825260208201905092915050565b600081905092915050565b600082825260208201905092915050565b600081905092915050565b6000612b8e82612cba565b9150612b9983612cba565b9250827fffffffffffffffffffffffffffffffffffffffffffffffffffffffffffffffff03821115612bce57612bcd612de3565b5b828201905092915050565b6000612be482612cba565b9150612bef83612cba565b925082612bff57612bfe612e12565b5b828204905092915050565b6000612c1582612cba565b9150612c2083612cba565b925082821015612c3357612c32612de3565b5b828203905092915050565b6000612c4982612c9a565b9050919050565b6000612c5b82612c9a565b9050919050565b60008115159050919050565b60007fffffffff0000000000000000000000000000000000000000000000000000000082169050919050565b600073ffffffffffffffffffffffffffffffffffffffff82169050919050565b6000819050919050565b82818337600083830152505050565b60005b83811015612cf1578082015181840152602081019050612cd6565b83811115612d00576000848401525b50505050565b60006002820490506001821680612d1e57607f821691505b60208210811415612d3257612d31612e41565b5b50919050565b612d4182612e9f565b810181811067ffffffffffffffff82111715612d6057612d5f612e70565b5b80604052505050565b6000612d7482612cba565b91507fffffffffffffffffffffffffffffffffffffffffffffffffffffffffffffffff821415612da757612da6612de3565b5b600182019050919050565b6000612dbd82612cba565b9150612dc883612cba565b925082612dd857612dd7612e12565b5b828206905092915050565b7f4e487b7100000000000000000000000000000000000000000000000000000000600052601160045260246000fd5b7f4e487b7100000000000000000000000000000000000000000000000000000000600052601260045260246000fd5b7f4e487b7100000000000000000000000000000000000000000000000000000000600052602260045260246000fd5b7f4e487b7100000000000000000000000000000000000000000000000000000000600052604160045260246000fd5b6000601f19601f8301169050919050565b7f4552433732313a207472616e7366657220746f206e6f6e20455243373231526560008201527f63656976657220696d706c656d656e7465720000000000000000000000000000602082015250565b7f4552433732313a20746f6b656e20616c7265616479206d696e74656400000000600082015250565b7f4661696c656420746f2073656e64204574686572000000000000000000000000600082015250565b7f4552433732313a207472616e7366657220746f20746865207a65726f2061646460008201527f7265737300000000000000000000000000000000000000000000000000000000602082015250565b7f4552433732313a20617070726f766520746f2063616c6c657200000000000000600082015250565b7f4661696c656420746f207769746864726177206d6f6e65792066726f6d20636f60008201527f6e74726163742e00000000000000000000000000000000000000000000000000602082015250565b7f4552433732313a206f70657261746f7220717565727920666f72206e6f6e657860008201527f697374656e7420746f6b656e0000000000000000000000000000000000000000602082015250565b7f4552433732313a20617070726f76652063616c6c6572206973206e6f74206f7760008201527f6e6572206e6f7220617070726f76656420666f7220616c6c0000000000000000602082015250565b7f4552433732313a2062616c616e636520717565727920666f7220746865207a6560008201527f726f206164647265737300000000000000000000000000000000000000000000602082015250565b7f4552433732313a206f776e657220717565727920666f72206e6f6e657869737460008201527f656e7420746f6b656e0000000000000000000000000000000000000000000000602082015250565b7f45524337323155524953746f726167653a2055524920736574206f66206e6f6e60008201527f6578697374656e7420746f6b656e000000000000000000000000000000000000602082015250565b7f4552433732313a206d696e7420746f20746865207a65726f2061646472657373600082015250565b7f45524337323155524953746f726167653a2055524920717565727920666f722060008201527f6e6f6e6578697374656e7420746f6b656e000000000000000000000000000000602082015250565b7f4552433732313a20617070726f76656420717565727920666f72206e6f6e657860008201527f697374656e7420746f6b656e0000000000000000000000000000000000000000602082015250565b7f4552433732313a207472616e73666572206f6620746f6b656e2074686174206960008201527f73206e6f74206f776e0000000000000000000000000000000000000000000000602082015250565b7f4552433732314d657461646174613a2055524920717565727920666f72206e6f60008201527f6e6578697374656e7420746f6b656e0000000000000000000000000000000000602082015250565b7f4552433732313a20617070726f76616c20746f2063757272656e74206f776e6560008201527f7200000000000000000000000000000000000000000000000000000000000000602082015250565b7f547279696e6720746f207769746864726177206d6f7265206d6f6e657920746860008201527f616e207468657920636f6e7472616374206861732e0000000000000000000000602082015250565b50565b7f4552433732313a207472616e736665722063616c6c6572206973206e6f74206f60008201527f776e6572206e6f7220617070726f766564000000000000000000000000000000602082015250565b61340181612c3e565b811461340c57600080fd5b50565b61341881612c50565b811461342357600080fd5b50565b61342f81612c62565b811461343a57600080fd5b50565b61344681612c6e565b811461345157600080fd5b50565b61345d81612cba565b811461346857600080fd5b5056fe416e204e465420772f20494420257320686173206265656e206d696e74656420746f202573646174613a6170706c69636174696f6e2f6a736f6e3b6261736536342c65776f6749434167496d3568625755694f6941695258427059307876636d52495957316964584a6e5a5849694c416f6749434167496d526c63324e796158423061573975496a6f67496b4675494535475643426d636d39744948526f5a53426f6157646f62486b6759574e6a624746706257566b49484e78645746795a53426a623278735a574e30615739754969774b4943416749434a706257466e5a53493649434a6b595852684f6d6c745957646c4c334e325a79743462577737596d467a5a5459304c464249546a4a6165554930596c643464574e364d476c685346497759305276646b777a5a444e6b6554557a54586b31646d4e7459335a4e616b463354554d35656d527459326c4a53454a35576c684f62474e75576d785257453533576c644f4d465674526a4268567a67355357356f546d46584e56705556327831535563786246705955576c4a53467077576c686b5132497a5a7a6c4a616b466e54554e42656b35555157644e656c563353576f30546b4e705157644a51304534597a4e534e574a485653744d6255706f597a4a565a325635516d31685633687a54326c434d3246486244426156484e6e576d3035645752444d57315a567a4677596b68724e6b6c49546d786a6257787454336c43625749794e54424d574535775a5731564e6b6c455254426a53476333535567774f45777a546a426c563368735547637753306c445157644a52486835576c644f4d456c495a48426153464a7655464e4a654531455157784a61554a76576c6473626d464955546c4a616b563354554e5661556c48576e4269523363355357314b63316c58546e4a4a615546325547637753306c445157644a52486777576c686f4d456c495a7a6c4a616c5633536c4e4a5a3256554d476c4f5645467353576c43616d4a48526e706a656a427057573147656c705453576461527a6c305956633161474a755558525a62555a36576c643463474a7456546c4a62544677576b6453633170545357646b523159305a454d7861474a74546d39694d306b355357307863467048556e4e6155306b72556c684363466b7765485a6a62564a4a5756637861575259536d356157456b3454444e5362475649555374455557383454444e4f4d6c70364e443069436e303da264697066735822122079f55ed5cf43c25a34074d6112b005560ad8a6c80c23492f1860e9610172359a64736f6c63430008040033",
  "linkReferences": {},
  "deployedLinkReferences": {}
}